{
  "contractName": "Will",
  "abi": [
    {
      "inputs": [],
      "stateMutability": "payable",
      "type": "constructor",
      "payable": true
    },
    {
      "anonymous": false,
      "inputs": [
        {
          "indexed": true,
          "internalType": "address",
          "name": "wallet",
          "type": "address"
        },
        {
          "indexed": false,
          "internalType": "uint256",
          "name": "amount",
          "type": "uint256"
        }
      ],
      "name": "InheritanceSet",
      "type": "event"
    },
    {
      "anonymous": false,
      "inputs": [],
      "name": "OwnerDeceased",
      "type": "event"
    },
    {
      "anonymous": false,
      "inputs": [
        {
          "indexed": true,
          "internalType": "address",
          "name": "wallet",
          "type": "address"
        },
        {
          "indexed": false,
          "internalType": "uint256",
          "name": "amount",
          "type": "uint256"
        }
      ],
      "name": "PayoutExecuted",
      "type": "event"
    },
    {
      "inputs": [],
      "name": "deceased",
      "outputs": [
        {
          "internalType": "bool",
          "name": "",
          "type": "bool"
        }
      ],
      "stateMutability": "view",
      "type": "function",
      "constant": true
    },
    {
      "inputs": [],
      "name": "fortune",
      "outputs": [
        {
          "internalType": "uint256",
          "name": "",
          "type": "uint256"
        }
      ],
      "stateMutability": "view",
      "type": "function",
      "constant": true
    },
    {
      "inputs": [],
      "name": "owner",
      "outputs": [
        {
          "internalType": "address",
          "name": "",
          "type": "address"
        }
      ],
      "stateMutability": "view",
      "type": "function",
      "constant": true
    },
    {
      "inputs": [
        {
          "internalType": "address payable",
          "name": "wallet",
          "type": "address"
        },
        {
          "internalType": "uint256",
          "name": "amount",
          "type": "uint256"
        }
      ],
      "name": "setInheritance",
      "outputs": [],
      "stateMutability": "nonpayable",
      "type": "function"
    },
    {
      "inputs": [],
      "name": "hasDeceased",
      "outputs": [],
      "stateMutability": "nonpayable",
      "type": "function"
    }
  ],
  "bytecode": "0x6080604052600080546001600160a01b03191633179055346001556002805460ff19169055610586806100336000396000f3fe608060405234801561001057600080fd5b50600436106100575760003560e01c8063177de89c1461005c57806372faf2d91461007a57806388d515941461008f5780638da5cb5b146100a4578063eddcca99146100b9575b600080fd5b6100646100c1565b6040516100719190610520565b60405180910390f35b6100826100c7565b6040516100719190610495565b6100a261009d36600461044b565b6100d0565b005b6100ac61021c565b6040516100719190610481565b6100a261022b565b60015481565b60025460ff1681565b6000546001600160a01b031633146101035760405162461bcd60e51b81526004016100fa906104a0565b60405180910390fd5b6000805b60035481101561017257836001600160a01b03166003828154811061013c57634e487b7160e01b600052603260045260246000fd5b6000918252602090912001546001600160a01b031614156101605760019150610172565b8061016a81610529565b915050610107565b50806101c457600380546001810182556000919091527fc2575a0e9e593c00f959f8c92f12db2869c3395a3b0502d05e2516446f71f85b0180546001600160a01b0319166001600160a01b0385161790555b6001600160a01b03831660008181526004602052604090819020849055517f0585366e63fae686296764f93fe45ee06f56e12aa2945538abf37f187f539ed99061020f908590610520565b60405180910390a2505050565b6000546001600160a01b031681565b6000546001600160a01b031633146102555760405162461bcd60e51b81526004016100fa906104a0565b6002805460ff191660011790556040517fd39dddb7c6f38edbed5d56fd51147c86df00732d741f5028b20ee442c1d23c9990600090a1610293610295565b565b60025460ff1615156001146102bc5760405162461bcd60e51b81526004016100fa906104d7565b60005b60035481101561044857600381815481106102ea57634e487b7160e01b600052603260045260246000fd5b6000918252602082200154600380546001600160a01b03909216926108fc92600492908690811061032b57634e487b7160e01b600052603260045260246000fd5b60009182526020808320909101546001600160a01b03168352820192909252604090810182205490518115909302929091818181858888f19350505050158015610379573d6000803e3d6000fd5b506003818154811061039b57634e487b7160e01b600052603260045260246000fd5b6000918252602082200154600380546001600160a01b03909216927f6d7b5ea65a17fdff1d0c494389ca865c65f34300cb05078e09421e8a397e42d19260049290869081106103fa57634e487b7160e01b600052603260045260246000fd5b60009182526020808320909101546001600160a01b03168352820192909252604090810190912054905161042e9190610520565b60405180910390a28061044081610529565b9150506102bf565b50565b6000806040838503121561045d578182fd5b82356001600160a01b0381168114610473578283fd5b946020939093013593505050565b6001600160a01b0391909116815260200190565b901515815260200190565b6020808252601f908201527f6f6e6c79206f776e65722063616e2065786563757465207468652077696c6c00604082015260600190565b60208082526029908201527f6f776e6572206d75737420626520646563656173656420746f2065786563757460408201526865207061796f75747360b81b606082015260800190565b90815260200190565b600060001982141561054957634e487b7160e01b81526011600452602481fd5b506001019056fea2646970667358221220c1b6f94307dcd2209c4813524fc82c7902f3c6fc2abe5fb13931ea7f4b489c6064736f6c63430008000033",
  "immutableReferences": {},
  "source": "// SPDX-License-Identifier: MIT\npragma solidity ^0.8.0;\n\ncontract Will {\n    address public owner;\n    uint public fortune;\n    bool public deceased;\n\n    event InheritanceSet(address indexed wallet, uint amount);\n    event PayoutExecuted(address indexed wallet, uint amount);\n    event OwnerDeceased();\n\n    constructor() payable {\n        owner = msg.sender;\n        fortune = msg.value;\n        deceased = false;\n    }\n\n    modifier onlyOwner {\n        require(msg.sender == owner, 'only owner can execute the will');\n        _;\n    }\n\n    modifier mustBeDeceased {\n        require(deceased == true, 'owner must be deceased to execute payouts');\n        _;\n    }\n\n    address payable[] familyWallets;\n    mapping(address => uint) inheritance;\n\n    function setInheritance(address payable wallet, uint amount) public onlyOwner {\n        // Check if the wallet is already in the familyWallets array\n        bool walletExists = false;\n        for (uint i = 0; i < familyWallets.length; i++) {\n            if (familyWallets[i] == wallet) {\n                walletExists = true;\n                break;\n            }\n        }\n\n        // Add wallet to the familyWallets array if it doesn't already exist\n        if (!walletExists) {\n            familyWallets.push(wallet);\n        }\n        inheritance[wallet] = amount;\n        emit InheritanceSet(wallet, amount);\n    }\n\n    function payout() private mustBeDeceased {\n        for (uint i = 0; i < familyWallets.length; i++) {\n            familyWallets[i].transfer(inheritance[familyWallets[i]]);\n            emit PayoutExecuted(familyWallets[i], inheritance[familyWallets[i]]);\n        }\n    }\n\n    function hasDeceased() public onlyOwner {\n        deceased = true;\n        emit OwnerDeceased();\n        payout();\n    }\n}\n",
  "sourcePath": "C:\\Users\\Dennis\\Desktop\\willguard\\client\\src\\contracts\\Will.sol",
  "compiler": {
    "name": "solc",
    "version": "0.8.0+commit.c7dfd78e.Emscripten.clang"
  },
  "schemaVersion": "3.4.16",
  "updatedAt": "2024-07-08T10:43:37.657Z",
  "networkType": "ethereum",
  "devdoc": {
    "kind": "dev",
    "methods": {},
    "version": 1
  },
  "userdoc": {
    "kind": "user",
    "methods": {},
    "version": 1
  }
}