{
  "contractName": "Will",
  "abi": [
    {
      "inputs": [],
      "stateMutability": "payable",
      "type": "constructor",
      "payable": true
    },
    {
      "inputs": [
        {
          "internalType": "address payable",
          "name": "wallet",
          "type": "address"
        },
        {
          "internalType": "uint256",
          "name": "amount",
          "type": "uint256"
        }
      ],
      "name": "setInheritance",
      "outputs": [],
      "stateMutability": "nonpayable",
      "type": "function"
    },
    {
      "inputs": [],
      "name": "hasDeceased",
      "outputs": [],
      "stateMutability": "nonpayable",
      "type": "function"
    }
  ],
  "bytecode": "0x6080604052600080546001600160a01b03191633179055346001556002805460ff19169055610335806100336000396000f3fe608060405234801561001057600080fd5b50600436106100365760003560e01c806388d515941461003b578063eddcca9914610050575b600080fd5b61004e610049366004610222565b610058565b005b61004e6100e7565b6000546001600160a01b0316331461008b5760405162461bcd60e51b815260040161008290610258565b60405180910390fd5b60038054600181019091557fc2575a0e9e593c00f959f8c92f12db2869c3395a3b0502d05e2516446f71f85b0180546001600160a01b039093166001600160a01b03199093168317905560009182526004602052604090912055565b6000546001600160a01b031633146101115760405162461bcd60e51b815260040161008290610258565b6002805460ff19166001179055610126610128565b565b60025460ff16151560011461014f5760405162461bcd60e51b81526004016100829061028f565b60005b60035481101561021f576003818154811061017d57634e487b7160e01b600052603260045260246000fd5b6000918252602082200154600380546001600160a01b03909216926108fc9260049290869081106101be57634e487b7160e01b600052603260045260246000fd5b60009182526020808320909101546001600160a01b03168352820192909252604090810182205490518115909302929091818181858888f1935050505015801561020c573d6000803e3d6000fd5b5080610217816102d8565b915050610152565b50565b60008060408385031215610234578182fd5b82356001600160a01b038116811461024a578283fd5b946020939093013593505050565b6020808252601f908201527f6f6e6c79206f776e65722063616e2065786563757465207468652077696c6c00604082015260600190565b60208082526029908201527f6f776e6572206d75737420626520646563656173656420746f2065786563757460408201526865207061796f75747360b81b606082015260800190565b60006000198214156102f857634e487b7160e01b81526011600452602481fd5b506001019056fea264697066735822122023504f92de3a9b4e32f9e0e87ba11cc58df87dedfed89d24308de11d307d7ae764736f6c63430008000033",
  "immutableReferences": {},
  "source": "// SPDX-License-Identifier: MIT\npragma solidity ^0.8.0;\n\ncontract Will {\n    address owner;\n    uint fortune;\n    bool deceased;\n\n    constructor() payable {\n        owner = msg.sender; // msg sender represents address being called\n        fortune = msg.value; //msg value tells us how much ether is being sent \n        deceased = false; \n    }\n\n    // the only person who can call the contract is the owner\n    modifier onlyOwner {\n        require(msg.sender == owner, 'only owner can execute the will');\n        _;\n    }\n\n    // only allocate funds if friend's gramps is deceased\n    modifier mustBeDeceased {\n        require(deceased == true, 'owner must be deceased to execute payouts');\n        _;\n    }    \n\n    // list of family wallets\n    address payable[] familyWallets;\n\n    // map through inheritance\n    mapping(address => uint) inheritance;\n\n    // set inheritance for each address\n    function setInheritance(address payable wallet, uint amount) public onlyOwner {\n        familyWallets.push(wallet);\n        inheritance[wallet] = amount;\n    }\n\n    // pay each family member based on their wallet address\n    function payout() private mustBeDeceased {\n        for(uint i=0; i<familyWallets.length; i++) {\n            familyWallets[i].transfer(inheritance[familyWallets[i]]);\n            // transferring funds from contract address to receiver address\n        }\n    }\n\n    // oracle switch simulation\n    function hasDeceased() public onlyOwner {\n        deceased = true;\n        payout();\n    }\n}\n",
  "sourcePath": "C:\\Users\\Dennis\\Desktop\\willguard\\client\\src\\contracts\\Will.sol",
  "compiler": {
    "name": "solc",
    "version": "0.8.0+commit.c7dfd78e.Emscripten.clang"
  },
  "schemaVersion": "3.4.16",
  "updatedAt": "2024-07-06T21:23:48.495Z",
  "networkType": "ethereum",
  "devdoc": {
    "kind": "dev",
    "methods": {},
    "version": 1
  },
  "userdoc": {
    "kind": "user",
    "methods": {},
    "version": 1
  }
}